:020000040800F2
:10000000881700247903000831AE00085D9D0008C0
:100010002DAE0008D10A000865CF000800000000DE
:10002000000000000000000000000000C5BD000846
:10003000C911000800000000ADB70008C7BD0008E6
:100040009303000893030008930300089303000838
:100050009303000893030008CB110008D511000892
:10006000930300089303000893030008A90B0008FA
:100070009303000893030008930300089303000808
:100080009303000893030008C10A0008E511000863
:1000900093030008930300089303000893030008E8
:1000A00093030008930300089303000893030008D8
:1000B0009303000805C0000835C00008930300083A
:1000C00093030008930300089303000893030008B8
:1000D00093030008930300089303000855CF00081A
:1000E0009303000893030008000000009303000836
:1000F0009303000893030008930300089303000888
:10010000930300089303000865C0000893030008E8
:100110009303000893030008930300089303000867
:100120009303000893030008930300089303000857
:100130009303000893030008930300089303000847
:1001400000000000000000000000000000000000AF
:100150009303000893030008930300089303000827
:100160009303000893030008930300089303000817
:1001700093030008930300089303000800000000A5
:1001800093030008930300089303000893030008F7
:1001900093030008930300089303000893030008E7
:1001A00093030008930300089303000893030008D7
:1001B00093030008930300089303000893030008C7
:1001C00093030008930300089303000893030008B7
:1001D00093030008930300089303000893030008A7
:1001E0009303000893030008930300089303000897
:1001F0009303000893030008930300089303000887
:100200009303000893030008930300089303000876
:100210009303000893030008930300089303000866
:1002200093030008930300089303000800000000F4
:1002300093030008930300080000000093030008E4
:100240009303000893030008930300089303000836
:100250009303000893030008930300089303000826
:100260009303000893030008930300089303000816
:1002700093030008930300089303000800000000A4
:100280009303000893030008930300080000000094
:10029000000000009303000800F002F800F05CF892
:1002A0000AA090E8000C82448344AAF10107DA45D1
:1002B00001D100F051F8AFF2090EBAE80F0013F0C7
:1002C000010F18BFFB1A43F00103184794D900002F
:1002D000B4D900000A444FF0000C10F8013B13F0B1
:1002E000070408BF10F8014B1D1108BF10F8015B8F
:1002F000641E05D010F8016B641E01F8016BF9D182
:1003000013F0080F1EBF10F8014BAD1C0C1B09D1D8
:100310006D1E58BF01F801CBFAD505E014F8016B4A
:1003200001F8016B6D1EF9D59142D6D370470000DC
:100330000023002400250026103A28BF78C1FBD8EE
:10034000520728BF30C148BF0B6070471FB50DF082
:1003500027F81FBD10B510BD00F006F91146FFF7D4
:10036000F5FF0CF05FFE00F024F903B4FFF7F2FF95
:1003700003BC00F027F900000948804709480047FE
:10038000FEE7FEE7FEE7FEE7FEE7FEE7FEE7FEE745
:10039000FEE7FEE704480549054A064B70470000A2
:1003A00009BF00089902000888110024881700245A
:1003B000881300248813002453EA020C00F069809B
:1003C0002DE9F04B4FF00006002B1FBFB3FA83F569
:1003D00003FA05F424FA05F65E4012BF1643B2FA9A
:1003E00082F502FA05F4C5F120051EBF22FA05FCCC
:1003F00044EA0C04203556EA044C4FEA144418BF72
:10040000641C4FF000084FF00009904271EB030CA0
:1004100039D3002919BFB1FA81F701FA07F6B0FA0A
:1004200080F700FA07F6C7F120071EBF20FA07FC85
:1004300046EA0C062037B6FBF4FCA7EB0507103F95
:1004400007F01F0BCBF120060CFA0BFB2CFA06F67B
:1004500044BFB3460026202FA4BF5E464FF0000BDA
:100460005BEA060C08BF4FF0010B19EB0B09ABFB65
:10047000027C48EB0608C01B06FB02CC0BFB03CC3E
:1004800071EB0C01C1E70B46024641464846BDE808
:10049000F08B13B54FF000004FF00001AFF3008078
:1004A000BDE81C40704710B5203AC0F00B80B1E8A1
:1004B0001850203AA0E81850B1E81850A0E8185099
:1004C000BFF4F5AF5FEA027C24BFB1E81850A0E8A2
:1004D000185044BF18C918C0BDE810405FEA827CBC
:1004E00024BF51F8043B40F8043B08BF7047D207D3
:1004F00028BF31F8023B48BF11F8012B28BF20F874
:10050000023B48BF00F8012B70474FF0000200B5D6
:10051000134694469646203922BFA0E80C50A0E826
:100520000C50B1F12001BFF4F7AF090728BFA0E8D4
:100530000C5048BF0CC05DF804EB890028BF40F8A0
:10054000042B08BF704748BF20F8022B11F0804FE2
:1005500018BF00F8012B70477047704770470000C4
:1005600000487047241100247546FFF7F9FFAE4696
:1005700005006946534620F00700854618B020B5AF
:10058000FFF708FFBDE820404FF000064FF00007DE
:100590004FF000084FF0000B21F00701AC46ACE82B
:1005A000C009ACE8C009ACE8C009ACE8C0098D4698
:1005B000704710B50446AFF300802046BDE81040F8
:1005C000FFF7D3BE01491820ABBEFEE726000200AC
:1005D0007047000070B504464F492068884203D038
:1005E0004E492068884208D14D48006800F44030E8
:1005F00008B1012009E0002007E04A48006800F443
:10060000403008B1012000E00020B8B107F056FBEF
:1006100005466068B0F5803F06D0B0F5003F04D0D5
:10062000B0F5403F08D105E000BF6068000CB5FBA5
:10063000F0F502E0AD0800E000BF2BE04FF4002031
:10064000002105F09FFE05466068C0F31101F9B96D
:1006500080140C281CD2DFE800F01B060708090AEA
:100660000B111315171900BF00BF00BF00BF00BF5B
:100670006068800C4000B5FBF0F50AE02D0908E049
:100680006D0906E0AD0904E0ED0902E02D0A00E085
:1006900000BF00BF04F0C2FC41F20301884210D841
:1006A0002148854206D92068806840F4807021681E
:1006B00088602FE02068806820F48070216888605E
:1006C00028E06D081948854206D82068806820F423
:1006D0004070216888601DE01548854208D8206870
:1006E000806820F4407040F480702168886011E0D8
:1006F0001048854208D82068806820F4407040F493
:1007000000702168886005E02068806840F44070CF
:100710002168886070BD0000002002400021024076
:100720000823024008630258002D3101105E5F006B
:1007300020BCBE0040787D0170B50546AC6B606D95
:1007400000F0500098BB606D40F400706065206858
:10075000006800F00800A8B1206809F043FF10B35A
:100760002068C06800F40050E8B9606D20F4807023
:100770006065606D00F48050A8B9606D40F00100C4
:10078000606510E02068C06800F0030058B9606D33
:1007900020F480706065606D00F4805018B9606D61
:1007A00040F001006065204601F052FA0CE0FFE7DE
:1007B000606D00F0100018B1204601F04BFA03E024
:1007C000E06CC16C2846884770BD70B50546AC6BBF
:1007D000606D40F040006065A06D40F00400A065D1
:1007E000204601F037FA70BD70B50446A56B284667
:1007F00001F02FFA70BD000070B50446206809F0C2
:10080000D8FE002851D1206880682949084048B1A5
:10081000606D40F010006065A06D40F00100A065C3
:10082000012070BD206809F0ADFE04F0FDFB054617
:10083000204A2168914203D01F4A2168914201D188
:100840001E4900E01E49084609F0A9FE06461A495D
:100850002068884201D1174800E02068216888425A
:1008600000D00EBB1AE0206809F0A3FE10B9206882
:1008700009F088FE04F0D8FB401B02280ED920683E
:10088000006800F0010048B9606D40F0100060653C
:10089000A06D40F00100A0650120C2E7206800685B
:1008A00000F001000028DED000BF0020B9E7000002
:1008B0003F0000800020024000210240002302404F
:1008C0000063025810B5664814220168654800F0BC
:1008D00043FE00EE100AB8EEC00A634880ED000A3D
:1008E0005F48142241685F48183000F035FE00EE82
:1008F000100AB8EEC00A5C4880ED010A584814227C
:1009000081685848303000F027FE00EE100AB8EE3B
:10091000C00A554880ED020A51481422C168514866
:10092000483000F019FE00EE100AB8EEC00A4E483A
:1009300080ED030A4A48142201694A48603000F0F9
:100940000BFE00EE100AB8EEC00A474880ED040A1C
:10095000D0ED040A9FED451A9FED450A10EE810A7D
:10096000DFED440A30EE200ADFED430A30EE600A84
:1009700080ED050AD0ED010A9FED401A9FED400A77
:1009800000EE810ADFED3F0A30EE200ADFED3E0A7D
:1009900030EE200A80ED060AD0ED030A9FED3B1AE7
:1009A0009FED3B0A00EE810ADFED3A0A30EE600A65
:1009B00080ED080A90ED080ADFED370AB4EEE00A90
:1009C000F1EE10FA0CD290ED080ADFED340AB4EE25
:1009D000E00AF1EE10FA03DD9FED310A80ED080A1E
:1009E0002148D0ED020A9FED2F1A9FED2F0A10EE3D
:1009F000810ADFED2E0A30EE600A80ED070A90EDE5
:100A0000050AD0ED070A20EE200ADFED290A80EE64
:100A1000201A80ED0B1A90ED060AD0ED080A20EEA0
:100A2000200ADFED230A80EE201A80ED0A1A214801
:100A30000068401C1F49086004F0F6FA1E49096866
:100A4000401AB0F57A7F0AD31A4800681B4908603B
:100A500000201849086004F0E7FA1749086010BD43
:100A6000880C0024B00C002488100024C3F5883FB3
:100A700000408D440000484500A08C45A4707D3F97
:100A800000805A440000164400002F44C52010BFC7
:100A900000C822460000C84300004842000048C287
:100AA0000000000085EB113F00300E460000484476
:100AB00000247449F8060024FC06002400070024E2
:100AC00010B5024801F0C8F810BD0000600700240E
:100AD00000BFFEE71CB52E4890F840008DF80000DE
:100AE0002C4890ED0A0ADFED2C0AB4EEE00AF1EE94
:100AF00010FA16DD90ED0A0ADFED280AB4EEE00ADE
:100B0000F1EE10FA0DD290ED0A0ADFED240A30EE74
:100B1000200ABCEEC00A10EE100AC0B28DF8010027
:100B20001AE01C4890ED0A0ADFED1C0AB4EEE00A58
:100B3000F1EE10FA03DBFF208DF801000CE0154800
:100B400090ED0A0ADFED140AB4EEE00AF1EE10FAB5
:100B500002D800208DF8010040F2013010490860F1
:100B60000020486088600820C860000708610020F5
:100B7000486188614FF40000C861002008626A463D
:100B8000084803F051FB00200549C8611CBD000066
:100B90002010002488100024000000C3000000433F
:100BA0003C0800248808002410B5024802F0D8F858
:100BB00010BD0000C40700240146374A086890426F
:100BC00049D0354A18320868904244D0324A30320F
:100BD000086890423FD0304A4832086890423AD084
:100BE0002D4A60320868904235D02B4A7832086826
:100BF000904230D0284A9032086890422BD0264A42
:100C0000A8320868904226D0244A0868904222D030
:100C1000224A1832086890421DD0204A30320868B3
:100C2000904218D01D4A48320868904213D01B4A9F
:100C30006032086890420ED0184A783208689042B4
:100C400009D0164A90320868904204D0134AA8325C
:100C50000868904201D1012000E00020B0B10A787C
:100C6000103A1823B2FBF3F000F007020C4B9A5C29
:100C7000CA65032805D90A686FF30902121D8A653F
:100C800003E00A686FF309028A6503E0086820F050
:100C9000FF008865886D7047100002401004024014
:100CA000AAD3000810B502682B4C0368A34222D0D7
:100CB000294C14340368A3421DD0274C2834036800
:100CC000A34218D0244C3C340368A34213D0224CD6
:100CD00050340368A3420ED01F4C64340368A3420F
:100CE00009D01D4C78340368A34204D01A4C8C34CC
:100CF0000368A34201D1012300E000238BB10378F4
:100D0000083B1424B3FBF4F1144B03EB810303669B
:100D1000124B8033436601F01F040123A340836616
:100D200018E00378103B1824B3FBF4F10C4B9A4203
:100D300004D80B4BA83B9A4200D30831094B03EB74
:100D400081030366074B8033436601F01F040123D0
:100D5000A340836610BD0000085402580058025892
:100D6000B8040240000802400179A9B3082940D81C
:100D7000204B02689A4222D01E4B143302689A42DA
:100D80001DD01C4B283302689A4218D0194B3C33B3
:100D900002689A4213D0174B503302689A420ED021
:100DA000144B643302689A4209D0124B78330268BC
:100DB0009A4204D00F4B8C3302689A4201D101222F
:100DC00000E000224AB14A1E0B4B03EB8202C266CE
:100DD000094A4032026708E00BE04A1E074B03EB6A
:100DE0008202C266054A403202674A1E01239340CE
:100DF00043677047085402580059025800090240DE
:100E0000014600208A69D2B98A6A32B1012A0DD01E
:100E1000022A03D0032A10D10EE000BFCA6A02F0F2
:100E20008072B2F1807F00D1012007E0CA6AB2F17E
:100E3000C07F00D1012001E000E000BF36E08A69F8
:100E4000B2F5005F1BD18A6A32B1012A07D0022AAB
:100E500003D0032A11D10AE000BF01200EE0CA6AC4
:100E600002F08072B2F1807F00D1012006E0CA6AF0
:100E7000B2F1C07F00D1012000E000BF16E08A6A15
:100E800032B1012A05D0022A04D0032A0CD103E092
:100E900000BF00BF012008E0CA6A02F08072B2F110
:100EA000807F00D1012000E000BF00BF704700003C
:100EB000F0B5856D846D984F0668BE4270D0964F30
:100EC00018370668BE426BD0934F30370668BE4273
:100ED00066D0914F48370668BE4261D08E4F60376A
:100EE0000668BE425CD08C4F78370668BE4257D049
:100EF000894F90370668BE4252D0874FA8370668A0
:100F0000BE424DD0854F0668BE4249D0834F183748
:100F10000668BE4244D0814F30370668BE423FD09B
:100F20007E4F48370668BE423AD07C4F603706682D
:100F3000BE4235D0794F78370668BE4230D0774F01
:100F400090370668BE422BD0744FA8370668BE4261
:100F500026D0734F0668BE4222D0714F1437066800
:100F6000BE421DD06E4F28370668BE4218D06C4F67
:100F70003C370668BE4213D0694F50370668BE4200
:100F80000ED0674F64370668BE4209D0644F783789
:100F90000668BE4204D0624F8C370668BE4201D15B
:100FA000012600E000263EB1D0E919767E60C66ECB
:100FB00016B1D0E91C767E60574F0668BE4249D014
:100FC000554F18370668BE4244D0534F3037066835
:100FD000BE423FD0504F48370668BE423AD04E4FCF
:100FE00060370668BE4235D04B4F78370668BE4240
:100FF00030D0494F90370668BE422BD0464FA837B5
:101000000668BE4226D0454F0668BE4222D0434FF6
:1010100018370668BE421DD0404F30370668BE42C2
:1010200018D03E4F48370668BE4213D03B4F60375A
:101030000668BE420ED0394F78370668BE4209D0E6
:10104000364F90370668BE4204D0344FA837066842
:10105000BE4201D1012600E00026DEB190F85C60BE
:1010600006F01F073F26BE40AE600668366826F4CD
:10107000802607683E60066873608668402E04D14B
:101080000668B2600668F16044E00668B160066810
:10109000F2603FE0224F0668BE4222D0204F143754
:1010A0000668BE421DD01E4F28370668BE4218D0C3
:1010B0001B4F3C370668BE4213D0194F50370668A5
:1010C000BE420ED0164F64370668BE4209D0144F98
:1010D00078370668BE4204D0114F8C370668BE428E
:1010E00001D1012600E00026A6B190F85C6006F070
:1010F0001F070126BE406660066873608668402E42
:1011000004D10668B2600668F16003E00668B16069
:101110000668F260F0BD00001000024010040240BA
:101120000854025808B50F49496800910168009AAF
:10113000511A00EE901AB8EE601A0B49D1ED000A70
:10114000F8EE600AC1EE201AB7EEE11A9FED072B08
:1011500021EE021BF7EEC10BB0EE600A00990160B0
:1011600008BD0000001000E0D806002400000000C8
:1011700080842E410D49096841F080710B4A11604D
:1011800000210B4A51601146096841F001011160CC
:1011900008494143084A11600021084A11609FED47
:1011A000080A084981ED000A70470000FCED00E0E4
:1011B000001000E040420F00D8060024DC060024A6
:1011C00000000000E0060024704710B5012003F085
:1011D00013FE10BD10B5022003F00EFE10BD72B656
:1011E00000BFFEE710B5024803F0D4F910BD0000BF
:1011F0008808002410B501464A6B0868D0F88400BE
:101200004FF6FC74A04340EA82000C68C4F88400E6
:101210000868D0F8840020F47F04088F44EA004076
:101220000C68C4F88400886B02440868D0F8880011
:101230004FF6FC74A04340EA82000C68C4F88800B2
:101240000868D0F8880020F4FE04888F44EA004043
:101250000C68C4F88800C86B02EB40020868D0F83C
:10126000A0004FF6FC74A04340EA82000C68C4F86A
:10127000A0000868D0F8A00020F4FE044020405AE6
:1012800044EA00400C68C4F8A000D1E9104004FB17
:1012900000220868D0F8B0004FF6FC74A04340EA82
:1012A00082000C68C4F8B0000868D0F8B00020F4E0
:1012B000FE04B1F8480044EA00400C68C4F8B000ED
:1012C000D1E9124004FB00220868D0F8AC004FF6C8
:1012D000FC74A04340EA82000C68C4F8AC00D1E979
:1012E000144004FB00220868D0F8F0004FF6FC74AC
:1012F000A04340EA82000C68C4F8F0000868D0F807
:10130000F00020F47C14B1F8580044EA00400C6866
:10131000C4F8F000886D02EB40020868D0F8C00005
:101320004FF6FC74A04340EA82000C68C4F8C00089
:101330000868D0F8C00020F47C14B1F85C0044EADE
:1013400000400C68C4F8C0000868D0F8C00020F065
:101350007C5491F8600044EA00600C68C4F8C00056
:101360002A4C486B04EB8000C866CC6E886B04EB9B
:1013700080040C670C6FC86B04EBC0044C67D1E9A8
:10138000100460434C6F04EB80048C67D1E91204B5
:1013900060438C6F04EB8004CC67D1E91404604394
:1013A000CC6F04EB8004802044504458886D04EBDB
:1013B000C004842044508C6EC86D604384246458FB
:1013C00004EB8004882044508C6E086E60438824AF
:1013D000645804EB80049020445040580C4CA042C8
:1013E00009D99831486840F020004860032001F88E
:1013F0009809012010BDCB6E02E0002018601B1D73
:10140000902040589842F8D80020F3E700AC004004
:10141000FCD300402DE9F041054614461E46D1F8A4
:1014200004C0BCF1000F0AD1D1F810C0D1F8088077
:101430004CEA080CB1F800804CEA88430BE0D1F884
:1014400010C04CF0804CD1F808804CEA080CD1F860
:1014500000804CEA080391F82080D1F81CC04CEAC7
:10146000086CD1F818804CEA080CD1F814804CEACA
:10147000080CB1F80C804CEA0847D5F868C00CFBA2
:1014800006FCD5F8848008EB8C021360121D1760EF
:10149000121D002019E000F1030C14F80CC04FEAF3
:1014A0000C6800F1020C14F80CC048EA0C4800F17A
:1014B000010C14F80CC048EA0C2C14F800804CEA1B
:1014C000080CC2F800C0121D001DDFF81480D1F80E
:1014D0000CC018F80CC08445DDD8BDE8F0810000D0
:1014E000B4D3000800B589B000200190029001201B
:1014F0000390049040F201100590401E069001A94F
:10150000144802F0DAFE08B1FFF769FE0020034636
:101510000222114600900F4802F023FF08B1FFF7A6
:101520005EFE0C4803F00FFC08B1FFF758FE0022E6
:101530000121084802F024FE08B1FFF750FE002206
:101540004FF00071034802F01BFE08B1FFF747FEA1
:1015500009B000BD8808002410B50346501E9C68E1
:1015600084420CDD186890FBF2F01C68201A1860A9
:10157000186808441860186890FBF2F010BD1868ED
:10158000084418609868401C98609C68186890FB34
:10159000F4F0F3E7704770477047704770470000FA
:1015A0002DE9F04399B004460E464FF0000830682C
:1015B00000B100BF00BF94F85000012803D1022001
:1015C00019B0BDE8F083012084F8500000BF00206E
:1015D0001590169046492068884202D145480090EF
:1015E00001E000200090009850B9606D40F02000AC
:1015F000606500BF002084F8500000BF0120DFE7D5
:10160000009808F0EAFF0746206808F0E6FF002887
:1016100061D1002F5FD136492068884203D0354917
:101620002068884201D1344800E0344805463068DB
:1016300058B3A86820F4404071680843A8602C495A
:101640002068884203D02B492068884201D12A486B
:1016500000E02A482849884209D1254808F0AEFF11
:101660008146244808F0AAFF49EA000002E0244825
:1016700008F0A4FF70BBB16830680843A96840F661
:101680001F7291430843A8602BE0A86820F44040F3
:10169000A86017492068884203D01649206888420C
:1016A00001D1154800E015481349884209D1104876
:1016B00008F084FF81460F4808F080FF49EA0000E7
:1016C00002E00F4808F07AFF20B9A86840F61F71C1
:1016D0008843A86005E0606D40F0200060654FF031
:1016E000010800BF002084F8500000BF404667E7B3
:1016F0000020024000210240002302400063025803
:10170000006002582DE9F84F04460D464FF0000ADC
:101710000020009094F83800012800D100E000BFBC
:10172000FA49E868884200D00EE0F949206888420A
:1017300000D100BFF7492068884200D100BFF649B8
:101740002068884200D100BF00BF94F850000128F3
:1017500002D10220BDE8F88F012084F8500000BFBC
:10176000206808F035FF00287ED1286800F000408E
:10177000A8B92068C1692868C0F3130018B928689F
:10178000C0F3846004E0286890FAA0F0B0FA80F01A
:1017900000F01F020120904001432068C1612168D0
:1017A000D5E9002001F1300CC0F3012B0CEB8B03C9
:1017B000D3F800C000F01F0E4FF01F0B0BFA0EFB0A
:1017C0002CEA0B0C00F01F0BC2F3846E0EFA0BFE1A
:1017D0004CEA0E0CC3F800C000BF206808F0F8FE09
:1017E0008146206808F0E0FE8046B9F1000F6FD115
:1017F000B8F1000FFBD1AA682968206808F004FF3F
:10180000C648006800F07040B0F1805F07D1686999
:101810002168C968C1F382014900884014E020684A
:10182000C06800F0100038B968692168C968C1F360
:1018300082014900884007E068692168C96801F0B1
:10184000100189084900884007462869042840D0CB
:1018500020682A68296900F1600C0CEB8103D3F839
:1018600000C00CF0004C00E0D0E102F0F84B4BEA75
:10187000070B4CEA0B0CC3F800C000BF20686A7E5F
:101880002969012A01D1D20700E00022134600F1A4
:10189000600C0CEB8102D2F800C02CF0004C4CEA3A
:1018A000030CC2F800C000BF20682B7E2969012B01
:1018B00001D1DB0200E000231A46036923F4F04360
:1018C00001F01F0C02FA0CFC43EA0C03036100BF99
:1018D00037E02068006E00F0F8402978B0EB816FA7
:1018E00005D12068006E20F000402168086620685D
:1018F000406E00F0F8402978B0EB816F05D1206888
:10190000406E20F00040216848662068806E00F03C
:10191000F8402978B0EB816F05D12068806E20F007
:101920000040216888662068C06E00F0F840297881
:10193000B0EB816F05D12068C06E20F000402168B7
:10194000C866206808F035FE002872D12068EA6871
:101950002968D0F8C030C1F3130C23EA0C0302F05D
:10196000180BDFF8BCC12CFA0BFC0CEA010C43EAA3
:101970000C03C0F8C03000BF6449E86888427DD1DC
:101980002B68C3F313031BB92B68C3F3846304E010
:101990002B6893FAA3F3B3FA83F35B1C03F01F03E2
:1019A000092B3ED82B68C3F313031BB92B68C3F371
:1019B000846304E02B6893FAA3F3B3FA83F35B1C0C
:1019C00003F01F034FF0010C0CFA03FC2B68C3F368
:1019D00013031BB92B68C3F3846304E02B6893FAE9
:1019E000A3F3B3FA83F35B1C03F01F034CEA836C8D
:1019F0002B68C3F313031BB92B68C3F3846304E0A0
:101A00002B6893FAA3F3B3FA83F35B1C03F01F0371
:101A100003EB43034FF0000B4BEA03534CEA030381
:101A200041E02B68C3F3130323B92B68C3F384632A
:101A300005E0A9E02B6893FAA3F3B3FA83F35B1CE8
:101A400003F01F034FF0010C0CFA03FC2B68C3F3E7
:101A500013031BB92B68C3F3846304E02B6893FA68
:101A6000A3F3B3FA83F35B1C03F01F034CEA836C0C
:101A70002B68C3F313032BB92B6800E018E0C3F302
:101A8000846304E02B6893FAA3F3B3FA83F35B1C3B
:101A900003F01F030A3B03EB43034FF0007B4BEAC9
:101AA00003534CEA03031946AA68206808F0ACFD0A
:101AB000286800F00040002866D0154A216891424D
:101AC00003D0144A2168914201D1164900E0164919
:101AD0000846816801F0E07600BF0D492068884221
:101AE00003D00C492068884201D10E4800E00E481E
:101AF0000C4988421AD1064808F05BFD8346054828
:101B000008F057FD4BEA000013E000000000FF471B
:101B10000020024000210240006002580010005CDA
:101B2000FFFF0F0000230240006302583E4808F008
:101B300040FDE8BB3D492868884226D106F40000F4
:101B400018BB39492068884266D1394B22689A42CD
:101B500003D0384B22689A4201D1374A00E0374A15
:101B6000104646F4000108F063FD35480068354929
:101B7000B0FBF1F0401C4000009002E00098401ED5
:101B8000009000980028F9D146E02F492868884243
:101B900019D106F08070B0B92349206888423BD142
:101BA000234B22689A4205D0224B22689A4200E0D9
:101BB00025E001D1204A00E0204A104646F080711D
:101BC00008F036FD28E021492868884224D106F42F
:101BD000800008BB1449206888421DD1144B22683C
:101BE0009A4203D0134B22689A4201D1124A00E074
:101BF000124A104646F4800108F01AFD0CE0606DB0
:101C000040F0200060654FF0010A05E0606D40F093
:101C1000200060654FF0010A00BF002084F85000EA
:101C200000BF504696E5000000600258000084CBDB
:101C300000200240002102400023024000630258BD
:101C40001C000024400D0300000052C70000B8CF64
:101C500070477047704700002DE9F84F0446002098
:101C600000902068056820684668CD4A2168914246
:101C700003D0CC4A2168914201D1CB4900E0CB4945
:101C8000084608F08CFC074605F00200022811D136
:101C900006F0020002280DD1606D00F0100018B9A6
:101CA000606D40F4006060652046FFF773FC022021
:101CB0002168086005F00400042803D106F0040040
:101CC000042807D005F0080008285DD106F00800B8
:101CD000082859D1606D00F0100018B9606D40F40B
:101CE00000706065206808F07DFC002846D0AD4992
:101CF0002068884201D1AA4800E020682168884213
:101D000004D01FB1052F01D0092F03D12068D0F8CE
:101D10000C8009E0A3492068884201D1A04800E076
:101D200020688346DBF80C8008F40050B0F5005FB3
:101D300024D02068006800F0080008281ED1206820
:101D400008F046FC90B92068406820F00C0021683B
:101D50004860606D20F480706065606D00F48050B4
:101D600060B9606D40F00100606507E0606D40F0B3
:101D700010006065A06D40F00100A0652046FFF7EF
:101D800067FF0C202168086005F02000202803D19F
:101D900006F02000202807D005F04000402870D130
:101DA00006F0400040286CD1606D00F0100018B9BA
:101DB000606D40F4005060652068C16C01F4C07132
:101DC00009B9012100E000218A4600BF206808F01F
:101DD00009FC814673492068884201D1704800E0BF
:101DE00020682168884204D01FB1062F01D0072F38
:101DF00003D12068D0F80C8009E06A492068884245
:101E000001D1674800E020688346DBF80C80BAF116
:101E1000000F30D008F0007028B1B9F1000F2AD0BF
:101E200008F4005038BB2068006800F040004028EB
:101E300021D108F40010F0B9206808F0B5FB90B982
:101E40002068406820F0600021684860606D20F4E0
:101E500080506065606D00F4807060B9606D40F026
:101E60000100606507E0606D40F010006065A06DE6
:101E700040F00100A0652046FFF78DFB602021683F
:101E8000086005F0800080280DD106F080008028D1
:101E900009D1606D40F480306065204600F0CEF9D5
:101EA00080202168086005F48070B0F5807F0FD134
:101EB00006F48070B0F5807F0AD1606D40F4003088
:101EC00060652046FFF769FB4FF480702168086069
:101ED00005F40070B0F5007F0FD106F40070B0F586
:101EE000007F0AD1606D40F4802060652046FFF7D6
:101EF00055FB4FF400702168086005F010001028B1
:101F000033D106F0100010282FD1206B10B901201A
:101F1000009019E08FB1224A2168914203D0214AF2
:101F20002168914201D1204900E02049084608F08B
:101F300031FB48B10120009006E02068C06800F045
:101F4000030008B101200090009801280AD1606DBB
:101F500040F480606065A06D40F00200A0652046FE
:101F6000FFF778FE10202168086005F48060B0F566
:101F7000806F13D106F48060B0F5806F0ED1606D74
:101F800040F480406065A06D40F00800A0654FF40B
:101F90008060216808602046FFF7FEFABDE8F88FF0
:101FA000002002400021024000230240006302584A
:101FB0002DE9F84F04464FF000090020009014B9B5
:101FC0000120BDE8F88FE06818B1207F012800D11A
:101FD00000BF606D30B9204600F032F90020A065E6
:101FE00084F8500020688168C1F3407131B12068E5
:101FF0008168874A1140816000BF00BF206808F0F7
:10200000E2FAA8B920688168824A114041F0805103
:10201000816000BF804800688049B0FBF1F0401C3F
:10202000009002E00098401E009000980028F9D12E
:10203000206808F0C8FA48B9606D40F0100060658B
:10204000A06D40F00100A0654FF00109206808F084
:10205000BFFA0646606D00F0100000287ED1002E09
:10206000FCD1606D20F4807040F002006065206853
:1020700008F09FFA78BB6A492068884203D0694912
:102080002068884201D1684800E068486649884273
:1020900009D1634808F08DFA8246624808F089FA4F
:1020A0004AEA000002E0624808F083FA98B95C4B03
:1020B00022689A4203D05B4B22689A4201D15A4A65
:1020C00000E05A4A10466168826822F47C120A4392
:1020D000826000BF00BF02F0A1FF41F2030188420D
:1020E0000ED9A06810280BD1607D216B41EA4030E9
:1020F000A168084340F00C01207F41EA004508E058
:10210000607D216B41EA4030A1680843217F40EAAD
:102110000145207F012803D1208C401E45EA40451F
:10212000606A28B1A08C00F47870A16A0843054366
:102130002068C0683F49084028432168C86020687B
:1021400008F046FA8046206808F02EFA0746B8F1F3
:10215000000F3BD1D7BB207DE16A00E050E041EAAF
:1021600080352068C06844F2030188432843216811
:10217000C86094F83800012817D1606A08B1A06AD5
:1021800000B900BFA08F401E012141EA0041206C30
:102190000843616C0843A16C084321680969264A19
:1021A000114008432168086105E02068006920F0BB
:1021B0000100216808612068006920F07040616BAF
:1021C0000843216808612046FEF704FAE068012808
:1021D00009D12068006B20F00F00A169491E084357
:1021E0002168086305E02068006B20F00F0021687B
:1021F0000863606D20F0020040F00100606505E0BA
:10220000606D40F0100060654FF001094846D8E667
:10221000C0FFFF5FC0FFFF7F1C000024400D0300D4
:1022200000200240002102400023024000630258C7
:102230000060025803C0F0FF1EF800FC7047000069
:1022400010B5B8B00446142132A8FEF75EF9C021DB
:1022500002A8FEF75AF95149206888427ED14FF40E
:1022600000210020CDE902100120049012210591E7
:1022700005210691022107910891C0210991202191
:102280000A914FF4C0510B9100202B9002A804F04A
:10229000D1FC08B1FEF7A3FF00BF4148006840F041
:1022A00020003F4908600846006800F020000190C7
:1022B00000BF00BF00BF3A480830006840F001008E
:1022C0003749083108600846006800F001000190B5
:1022D00000BF00BF00BF0846006840F0040008606F
:1022E0000846006800F00400019000BF00BF00BF76
:1022F0000846006840F0020008600846006800F0E8
:102300000200019000BF00BF802032900320339074
:102310000020349032A9234802F07CFD3020329016
:10232000032033900020349032A91F4802F072FD40
:102330000320329033900020349032A91B4802F0E1
:1023400069FD1B481B4908600920486000211948A5
:102350008160C1604FF48061016100E01BE0890091
:102360004161890081618911C161490201620021D5
:10237000416201F071FA08B1FEF731FF00BF0D486C
:10238000E064846300BF00220121122003F01EFCE0
:10239000122003F007FC38B010BD000000200240FE
:1023A000D84402580000025800080258000402589D
:1023B00010000240C40700242DE9F04104460F46F6
:1023C0009046434A2168914203D0424A2168914293
:1023D00001D1414900E04149084608F0E0F80646CD
:1023E000206808F0F5F800286ED100BF94F850007E
:1023F000012802D10220BDE8F081012084F85000BC
:1024000000BF1EB1052E01D0092E57D12046FEF780
:10241000F3F90546002D4CD1606D40F6016188430B
:1024200040F4807060652B492068884201D12848BB
:1024300000E020682168884200D01EB9606D20F459
:1024400080106065606D00F4805020B1A06D20F0B8
:102450000600A06501E00020A0652148E16CC8638A
:102460002048E16C08642048E16CC8641C202168A5
:10247000086000BF002084F8500000BF206840685A
:1024800040F0100021684860E16A2068C26822F0CC
:1024900003020A43C26000BF226802F140014346C2
:1024A0003A46E06C01F068FC0546206808F0A4F8A4
:1024B0000BE000BF002084F8500006E0012500BFBB
:1024C000002084F8500000E00225284693E7000031
:1024D0000020024000210240002302400063025815
:1024E00039070008E9070008CB0700082DE9F0418B
:1024F000044602F099FD804614B90120BDE8F08140
:1025000094F83500022808D08020606500BF0020C4
:1025100084F8340000BF0120F0E7FE4920688842BB
:1025200049D0FC4918312068884244D0F9493031FB
:10253000206888423FD0F7494831206888423AD025
:10254000F44960312068884235D0F24978312068FA
:10255000884230D0EF499031206888422BD0ED4935
:10256000A8312068884226D0EB492068884222D0D2
:10257000E9491831206888421DD0E7493031206888
:10258000884218D0E44948312068884213D0E24993
:102590006031206888420ED0DF4978312068884257
:1025A00009D0DD4990312068884204D0DA49A83149
:1025B0002068884201D1012000E0002068B1206835
:1025C000006820F01E00216808602068406920F043
:1025D000800021684861256806E02068006820F0D6
:1025E0000E00216808602568CA492068884270D0BA
:1025F000C8491831206888426BD0C64930312068FC
:10260000884266D0C34948312068884261D0C149B8
:102610006031206888425CD0BE49783120688842A9
:1026200057D0BC4990312068884252D0B949A8316E
:10263000206888424DD0B8492068884249D0B649C0
:1026400018312068884244D0B3493031206888422C
:102650003FD0B1494831206888423AD0AE49603114
:102660002068884235D0AC4978312068884230D023
:10267000A9499031206888422BD0A749A831206809
:10268000884226D0A5492068884222D0A349143127
:10269000206888421DD0A14928312068884218D07E
:1026A0009E493C312068884213D09C4950312068B3
:1026B00088420ED0994964312068884209D09749F0
:1026C00078312068884204D094498C31206888424F
:1026D00001D1012000E0002028B1206E006820F424
:1026E0008070216E08608B492068884249D08949F2
:1026F00018312068884244D08649303120688842A9
:102700003FD084494831206888423AD081496031BD
:102710002068884235D07F4978312068884230D09F
:102720007C499031206888422BD07A49A8312068B2
:10273000884226D078492068884222D076491831CC
:10274000206888421DD0744930312068884218D0F2
:10275000714948312068884213D06F496031206840
:1027600088420ED06C4978312068884209D06A4985
:1027700090312068884204D06749A8312068884297
:1027800006D12068006820F001002168086005E09B
:102790002068006820F001002168086011E002F064
:1027A00043FCA0EB080005280BD92020606503201E
:1027B00084F8350000BF002084F8340000BF0120F9
:1027C0009CE6286800F001000028E8D15149206803
:1027D000884249D04F4918312068884244D04D4939
:1027E0003031206888423FD04A49483120688842C9
:1027F0003AD0484960312068884235D0454978311F
:102800002068884230D043499031206888422BD0DC
:102810004049A8312068884226D03F492068884234
:1028200022D03D491831206888421DD03A493031C4
:102830002068884218D0384948312068884213D02F
:1028400035496031206888420ED03349783120689C
:10285000884209D0304990312068884204D02E49FE
:10286000A8312068884201D1012000E0002040B159
:10287000A66D94F85C0000F01F013F208840B06016
:1028800007E0A76D94F85C0000F01F01012088406C
:10289000786020492068884276D01E491831206827
:1028A000884271D01B493031206888426CD0194968
:1028B00048312068884267D01649603120688842D4
:1028C00062D014497831206888425DD01149903136
:1028D0002068884258D00F49A8312068884253D0D8
:1028E0000D49206888424FD00B4918312068884232
:1028F0004AD0094930312068884245D006494831DC
:102900002068884240D004496031206888423BD02A
:10291000014905E01000024010040240085402582A
:102920007831206888422FD02549206888422BD0F2
:10293000234918312068884226D0224920688842DD
:1029400022D020491431206888421DD01D492831E9
:102950002068884218D01B493C312068884213D037
:1029600018495031206888420ED0164964312068D9
:10297000884209D0134978312068884204D011492F
:102980008C312068884201D1012000E0002068B12C
:10299000D4E919104860E06E40B1E06E006820F4A0
:1029A0008070E16E0860D4E91C104860012084F852
:1029B000350000BF002084F8340000BF00BF9DE553
:1029C000A00402400854025870B504460CB9012016
:1029D00070BD94F83500022803D080206065012086
:1029E000F6E7DC492068884249D0DA491831206886
:1029F000884244D0D7493031206888423FD0D549F9
:102A00004831206888423AD0D249603120688842F3
:102A100035D0D04978312068884230D0CD499031C6
:102A2000206888422BD0CB49A8312068884226D024
:102A3000C9492068884222D0C74918312068884295
:102A40001DD0C54930312068884218D0C24948316C
:102A50002068884213D0C0496031206888420ED077
:102A6000BD4978312068884209D0BB49903120683F
:102A7000884204D0B849A8312068884201D1012099
:102A800000E00020F0B3042084F83500B14920684C
:102A900088424BD0AF4918312068884246D0AD49B2
:102AA00030312068884241D0AA49483120688842A4
:102AB0003CD0A84960312068884237D0A549783198
:102AC0002068884232D0A3499031206888422DD0B6
:102AD000A049A8312068884228D09F4920688842B0
:102AE00024D09D491831206888421FD09A4930313E
:102AF000206888421AD0984948312068884215D009
:102B0000954900E020E06031206888420ED092496B
:102B100078312068884209D08F49903120688842F6
:102B200004D08D49A8312068884206D12068006809
:102B300020F001002168086009E12068006820F0A9
:102B400001002168086002E12068006820F00E00A2
:102B5000216808607F492068884249D07D49183142
:102B60002068884244D07B493031206888423FD079
:102B700078494831206888423AD0764960312068E7
:102B8000884235D0734978312068884230D0714905
:102B90009031206888422BD06E49A8312068884245
:102BA00026D06D492068884222D06B4918312068B0
:102BB00088421DD0684930312068884218D0664963
:102BC00048312068884213D06349603120688842C8
:102BD0000ED0614978312068884209D05E49903131
:102BE0002068884204D05C49A8312068884206D118
:102BF0002068006820F001002168086005E0206876
:102C0000006820F00100216808605249206888426D
:102C100070D050491831206888426BD04D4930310E
:102C20002068884266D04B4948312068884261D08C
:102C300048496031206888425CD046497831206834
:102C4000884257D0434990312068884252D0414948
:102C5000A831206888424DD03F492068884249D039
:102C60003D4918312068884244D03B4930312068C2
:102C700088423FD038494831206888423AD03649A6
:102C800060312068884235D03349783120688842E5
:102C900030D031499031206888422BD02E49A8315C
:102CA0002068884226D02D492068884222D02B49AE
:102CB0001431206888421DD0284928312068884274
:102CC00018D026493C312068884213D0234950311E
:102CD000206888420ED0214964312068884209D09A
:102CE0001E4978312068884204D01C498C31206804
:102CF000884201D1012000E00020D8B1206E006898
:102D000020F48070216E0860A56D94F85C0000F0DE
:102D10001F01012088406860D4E919104860E06E06
:102D200040B1E06E006820F48070E16E0860D4E984
:102D30001C104860012084F8350000BF002084F892
:102D4000340000BF206D10B12046216D884700205F
:102D50003EE60000100002401004024008540258F1
:102D60002DE9F84F044600200090FE4800684FF41B
:102D70001651B0FBF1FAA66DD4F858803768D8F830
:102D80000090F9492068884249D0F74918312068F5
:102D9000884244D0F4493031206888423FD0F2491B
:102DA0004831206888423AD0EF4960312068884233
:102DB00035D0ED4978312068884230D0EA499031E9
:102DC000206888422BD0E849A8312068884226D064
:102DD000E6492068884222D0E449183120688842B8
:102DE0001DD0E24930312068884218D0DF4948318F
:102DF0002068884213D0DD496031206888420ED0B7
:102E0000DA4978312068884209D0D8499031206861
:102E1000884204D0D549A8312068884201D10120D8
:102E200000E0002000287DD094F85C0000F01F0135
:102E3000082088403840002868D0CB492068884264
:102E400049D0C94918312068884244D0C649303138
:102E5000206888423FD0C4494831206888423AD02F
:102E6000C14960312068884235D0BF497831206837
:102E7000884230D0BC499031206888422BD0BA4972
:102E8000A8312068884226D0B8492068884222D0DC
:102E9000B6491831206888421DD0B44930312068C5
:102EA000884218D0B14948312068884213D0AF49D0
:102EB0006031206888420ED0AC4978312068884261
:102EC00009D0AA4990312068884204D0A749A83186
:102ED0002068884204D12068006800F0040003E004
:102EE0002068006800F0080080B12068006820F0C9
:102EF00004002168086094F85C0000F01F010820BD
:102F00008840B060606D40F00100606594F85C003E
:102F100000F01F01012088403840E8B39249206842
:102F2000884200E0B7E24BD08F49183120688842D0
:102F300046D08D4930312068884241D08A49483195
:102F4000206888423CD0884960312068884237D068
:102F5000854978312068884232D083499031206891
:102F600088422DD08049A8312068884228D07F49E6
:102F70002068884224D07D491831206888421FD0BB
:102F80007A493031206888421AD07849483120681F
:102F9000884215D0754900E026E0603120688842FB
:102FA0000ED0724978312068884209D06F4990313B
:102FB0002068884204D06D49A8312068884204D135
:102FC0002068406900F0800002E02068006800206E
:102FD00050B194F85C0000F01F0101208840B060FF
:102FE000606D40F00200606594F85C0000F01F0125
:102FF000042088403840E8B35B49206888424BD0C1
:10300000594918312068884246D0574930312068E4
:10301000884241D054494831206888423CD05249C6
:1030200060312068884237D04F4978312068884223
:1030300032D04D499031206888422DD04A49A8317C
:103040002068884228D049492068884224D04749CE
:103050001831206888421FD04449303120688842A6
:103060001AD0424948312068884215D03F49603122
:10307000206800E024E088420ED03C497831206886
:10308000884209D0394990312068884204D03749B4
:10309000A8312068884204D12068006800F002004E
:1030A00002E020680068002050B194F85C0000F055
:1030B0001F0104208840B060606D40F0040060652E
:1030C00094F85C0000F01F01102088403840E8B3FD
:1030D00025492068884251D0234918312068884208
:1030E0004CD0214930312068884247D01E494831B0
:1030F0002068884242D01C496031206888423DD017
:10310000194978312068884238D0174990312068B1
:10311000884233D01449A831206888422ED0134900
:10312000206888422AD0114918312068884225D069
:103130000E4930312068884220D00C49483120683F
:1031400088421BD009496031206800E04DE0884288
:1031500014D006497831206888420FD00349903155
:10316000206805E01C00002410000240100402400A
:10317000884203D0FE492068884204D12068006854
:1031800000F0080003E02068006800F0040060B36D
:1031900094F85C0000F01F0110208840B0602068A7
:1031A000006800F4802080B12068006800F40020EE
:1031B00028B9206CC8B12046216C884715E0A06C66
:1031C00098B12046A16C88470FE02068006800F4A1
:1031D000807028B92068006820F008002168086025
:1031E000206C10B12046216C884794F85C0000F0F8
:1031F0001F0120208840384000287DD0DD4920680C
:10320000884249D0DB4918312068884244D0D949E6
:103210003031206888423FD0D64948312068884202
:103220003AD0D44960312068884235D0D1497831CC
:103230002068884230D0CF499031206888422BD016
:10324000CC49A8312068884226D0C949A8392068CD
:10325000884221D0C6499039206888421CD0C44990
:1032600078392068884217D0C1496039206888427F
:1032700012D0BF494839206888420DD0BC49303946
:103280002068884208D0BA4918392068884203D09B
:10329000B7492068884204D12068006800F0100017
:1032A00003E02068006800F0020028B394F85C0096
:1032B00000F01F0120208840B06094F835000428F9
:1032C0002DD12068006820F0160021680860206871
:1032D000406920F0800021684861206C08B9A06C2A
:1032E00028B12068006820F008002168086094F880
:1032F0005C0000F01F0100E03FE03F208840B0602C
:10330000012084F8350000BF002084F8340000BF9D
:10331000206D10B12046216D8847BDE8F88F2068E8
:10332000006800F4802080B12068006800F400206C
:1033300028B9606C08B32046616C88471DE0E06BDB
:10334000D8B12046E16B884717E02068006800F498
:10335000807068B92068006820F01000216808605B
:10336000012084F8350000BF002084F8340000BF3D
:10337000E06B10B12046E16B8847606D00287AD081
:10338000606D00F00100E8B3042084F8350079494D
:10339000206888424BD0774918312068884246D04F
:1033A000744930312068884241D0724948312068E0
:1033B00088423CD06F4960312068884237D06D49DF
:1033C00078312068884232D06A499031206888423A
:1033D0002DD06849A8312068884228D06449A8398E
:1033E0002068884223D062499039206888421ED0E4
:1033F0005F4978392068884219D05D496039206872
:10340000884200E040E012D059494839206888429B
:103410000DD0574930392068884208D054491839AE
:103420002068884203D052492068884206D120682B
:10343000006820F001002168086005E0206800684D
:1034400020F001002168086000BF0098401C009037
:10345000504500D905E02068006800F00100002810
:10346000F3D100BF2068006800F0010020B1032004
:1034700084F8350003E00DE0012084F8350000BF3A
:10348000002084F8340000BFE06C002802D0204601
:10349000E16C8847D9E138492068884222D0364912
:1034A0001431206888421DD0334928312068884271
:1034B00018D031493C312068884213D02E49503110
:1034C000206888420ED02C4964312068884209D097
:1034D000294978312068884204D027498C312068F6
:1034E000884201D1012000E000200028D2D02068CD
:1034F000056894F85C0000F01F010420884000EA91
:103500000900D8B305F00400C0B394F85C0000F0E3
:103510001F0104208840C8F8040005F4004080B171
:1035200005F4803030B9A06C0028B3D02046A16CDF
:1035300088478AE1206C0028ACD02046216C88475F
:1035400083E105F02000E8BB0A492068884253D097
:1035500008491831206888424ED006493031206829
:10356000884249D0034948312068884244D006E067
:10357000B804024010000240085402584FE0B44919
:1035800060312068884237D0B1497831206888425C
:1035900032D0AF499031206888422DD0AC49A83153
:1035A0002068884228D0AB492068884224D0A949A5
:1035B0001831206888421FD0A649303120688842DF
:1035C0001AD000E025E0A34948312068884213D092
:1035D000A0496031206888420ED09E497831206829
:1035E000884209D09B4990312068884204D099498B
:1035F000A8312068884206D12068006820F00800C1
:103600002168086005E02068006820F00400216857
:103610000860206C10B32046216C884715E194F8AF
:103620005C0000F01F010220884000EA0900E8B3B6
:1036300005F00200D0B394F85C0000F01F010220F6
:103640008840C8F8040005F4004070B105F48030EB
:1036500028B9606C10B12046616C8847F5E0E06BDA
:10366000F0B32046E16B8847EFE005F02000C0BBD7
:103670007749206888424ED07549183120688842C1
:1036800049D0734930312068884244D0704948316C
:10369000206888423FD06E496031206888423AD025
:1036A0006B4978312068884235D000E04EE06849A7
:1036B0009031206888422ED06549A8312068884220
:1036C00029D064492068884225D062491831206891
:1036D000884220D05F493031206888421BD001E009
:1036E0006EE02DE05B4948312068884213D059498B
:1036F0006031206888420ED056497831206888426F
:1037000009D0544990312068884204D05149A831E9
:103710002068884206D12068006820F014002168E3
:10372000086005E02068006820F00A002168086051
:10373000012084F8350000BF002084F8340000BF69
:10374000E06BE8B32046E16B88477EE094F85C00CC
:1037500000F01F010820884000EA090080B305F04E
:10376000080068B33A49206888424BD0384918317C
:103770002068884246D0364930312068884241D09E
:1037800033494831206888423CD031496031206853
:10379000884237D02E4978312068884232D02C496F
:1037A0009031206888422DD02949A831206888426C
:1037B00028D028492068884224D02649183100E0C2
:1037C00043E0206888421DD0224930312068884279
:1037D00018D0204948312068884213D01D496031F3
:1037E000206888420ED01B4978312068884209D071
:1037F000184990312068884204D01649A8312068C1
:10380000884206D12068006820F01C00216808600A
:1038100005E02068006820F00E002168086094F838
:103820005C0000F01F0101208840C8F8040001205E
:10383000606584F8350000BF002084F8340000BFC4
:10384000E06C10B12046E16C884700BF65E50000E0
:1038500010000240100402402DE9F041044601F03E
:10386000E3FB804614B90120BDE8F081FE492068E1
:10387000884249D0FC4918312068884244D0FA492E
:103880003031206888423FD0F7494831206888426B
:103890003AD0F54960312068884235D0F249783114
:1038A0002068884230D0F0499031206888422BD07F
:1038B000ED49A8312068884226D0EC49206888422A
:1038C00022D0EA491831206888421DD0E7493031BA
:1038D0002068884218D0E54948312068884213D0D2
:1038E000E2496031206888420ED0E0497831206892
:1038F000884209D0DD4990312068884204D0DB49F4
:10390000A8312068884201D1012000E00020002871
:1039100073D0606A00B100BF022084F8350000BF98
:10392000002084F8340000BFCF492068884249D085
:10393000CD4918312068884244D0CB4930312068C5
:1039400088423FD0C8494831206888423AD0C649A9
:1039500060312068884235D0C34978312068884278
:1039600030D0C1499031206888422BD0BE49A8315F
:103970002068884226D0BD492068884222D0BB49B1
:103980001831206888421DD0B849303120688842FB
:1039900018D0B64948312068884213D0B349603105
:1039A000206888420ED0B14978312068884209D019
:1039B000AE4990312068884204D0AC49A8312068D3
:1039C000884206D12068006820F001002168086064
:1039D00005E02068006820F00100216808600DE023
:1039E00001F022FBA0EB0800052807D92020606524
:1039F000032084F83500012036E76AE0206800687B
:103A000000F001000028EBD12068056898480540C7
:103A1000D4E9020108432169084361690843A169A7
:103A20000843E1690843216A08430543606A0428A2
:103A300003D1D4E90B01084305438E4800686FF3B6
:103A40000F00B0F1005F1DD36068292802D36068C1
:103A50002E2811D960683F2802D3606842280BD90C
:103A60006068472802D36068482805D960684F28F5
:103A700004D36068522801D8012000E0002008B17A
:103A800045F48015206805602068456925F0070524
:103A9000606A0543606A04280DD1A06A0543E06AA4
:103AA00048B12046FDF7ACF928B1402060650120FF
:103AB00084F83500D8E6206845612046FDF77CF89B
:103AC000064694F85C0000F01F013F208840B0607B
:103AD0009EE069492068884222D0674914312068F5
:103AE00088421DD0644928312068884218D0624934
:103AF0003C312068884213D05F49503120688842A9
:103B00000ED05D4964312068884209D05A49783125
:103B10002068884204D058498C312068884201D1FD
:103B2000012000E00020E0B353492068884222D001
:103B300051491431206888421DD04F4928312068EE
:103B4000884218D04C493C312068884213D04A49F9
:103B50005031206888420ED047496431206888423D
:103B600009D0454978312068884204D042498C31D7
:103B70002068884201D1012000E0002000B100BF90
:103B8000022084F8350000BF002084F8340000BF14
:103B90002068056839480540A068402802D11021F6
:103BA00006E02EE0A068802801D1C10100E00021DC
:103BB000E06841EAD001206941EAD001606941EA48
:103BC000D001A06941EAD001E06941EAD001206A50
:103BD00041EA101005432068056027492068401A13
:103BE0001421B0FBF1F08000E0652046FCF7E4FF13
:103BF000074694F85C0000F01F01012088407860BF
:103C000006E040206065032084F8350001202BE6A3
:103C10001549206888427FD01349183120688842AE
:103C20007AD0114930312068884275D00E49483128
:103C30002068884270D00C496031206888426BD07F
:103C4000094978312068884266D007499031206858
:103C5000884261D00449A831206888425CD0034979
:103C60002068884258D00BE0100002401004024047
:103C70003F8010FE0010005C085402580F00FEFF49
:103C80003B4918312068884246D039493031206894
:103C9000884241D036494831206888423CD0344976
:103CA00060312068884237D03149783120688842B5
:103CB00032D02F499031206888422DD02C49A8312C
:103CC0002068884228D02B492068884224D029497E
:103CD0001431206888421FD0264928312068884244
:103CE0001AD024493C312068884215D021495031EE
:103CF0002068884210D01F496431206888420BD068
:103D00001C4978312068884206D01A498C312068D5
:103D1000884200E000E001D1012000E0002000B373
:103D20002046FCF7BFFFA068802801D1002060601A
:103D30002079216E0860D4E919104860606860B18C
:103D40006068082809D82046FDF70EF80020E16ECB
:103D50000860D4E91C10486003E00020E06620679A
:103D6000606700206065012084F8350000207BE555
:103D700010040240085402582DE9F04104460D4653
:103D800016461F464FF0000814B90120BDE8F08127
:103D900000BF94F83400012801D10220F6E7012089
:103DA00084F8340000BF94F8350001287ED1022049
:103DB00084F8350000206065E4492068884249D0D5
:103DC000E24918312068884244D0E0493031206807
:103DD00088423FD0DD494831206888423AD0DB49EB
:103DE00060312068884235D0D849783120688842CF
:103DF00030D0D6499031206888422BD0D349A831A1
:103E00002068884226D0D2492068884222D0D049F2
:103E10001831206888421DD0CD4930312068884251
:103E200018D0CB4948312068884213D0C849603146
:103E3000206888420ED0C64978312068884209D06F
:103E4000C34990312068884204D0C149A831206814
:103E5000884206D12068006820F0010021680860CF
:103E600005E02068006820F00100216808603B46FA
:103E7000324629462046FDF71BF8B449206888429F
:103E80004BD0B24918312068884246D0AF49303112
:103E90002068884241D0AD494831206888423CD0F2
:103EA000AA4960312068884237D000E042E1A74942
:103EB00078312068884230D0A44990312068884207
:103EC0002BD0A249A8312068884226D0A04920687A
:103ED000884222D09E491831206888421DD09C49D2
:103EE00030312068884218D099494831206888428A
:103EF00013D097496031206888420ED094497831B8
:103F00002068884209D0924990312068884204D0C4
:103F10008F49A8312068884201D1012000E00020AB
:103F200080B12068006820F01E0040F01600216873
:103F30000860206CB0B12068006840F0080021687B
:103F400008600FE02068006820F00E0040F00A00D2
:103F500021680860206C28B12068006840F00400E7
:103F60002168086079492068884270D07749183103
:103F7000206888426BD0754930312068884266D00D
:103F8000724948312068884261D0704960312068A8
:103F900088425CD06D4978312068884257D06B499F
:103FA00090312068884252D06849A8312068884200
:103FB0004DD067492068884249D06549183120684A
:103FC000884244D062493031206888423FD06049FD
:103FD0004831206888423AD05D4960312068884283
:103FE00035D05B4978312068884230D058499031CB
:103FF000206888422BD05649A8312068884226D0B4
:1040000054492068884222D052491431206888429D
:104010001DD0504928312068884218D04D493C3184
:104020002068884213D04B495031206888420ED016
:10403000484964312068884209D04649783120686F
:10404000884204D043498C312068884201D1012044
:1040500000E0002090B1206E006800F4803028B1AC
:10406000206E006840F48070216E0860E06E28B118
:10407000E06E006840F48070E16E086033492068AB
:10408000884249D0314918312068884244D02F49AC
:104090003031206888423FD02C494831206888421E
:1040A0003AD02A4960312068884235D02749783192
:1040B0002068884230D025499031206888422BD032
:1040C0002249A8312068884226D0214920688842A8
:1040D00022D01F491831206888421DD01C49303138
:1040E0002068884218D01A4948312068884213D085
:1040F00017496031206888420ED015497831206810
:10410000884209D0124990312068884204D0104971
:10411000A8312068884206D12068006840F001007C
:104120002168086010E02068006840F00100216804
:10413000086009E04FF40060606500BF002084F86B
:10414000340000BF4FF0010840461FE61000024057
:10415000100402400854025870B5044600F064FF91
:1041600006462546681C10B104480078054400BF87
:1041700000F05AFF801BA842FAD370BD180000243B
:1041800030B5034693F89840012C01D0022C3ED163
:104190001868806D084030B91868C06D40F00100A3
:1041A0001D68E8650EE01868806D0840884206D1F9
:1041B0001868C06D40F002001D68E86502E0032049
:1041C0001D68E86501F4007030B11868D0F8E000AF
:1041D00010431D68C5F8E00001F4806030B1186834
:1041E000D0F8E40010431D68C5F8E40000BF18686B
:1041F000406D0B4D0D4028431D68686509480068F7
:1042000040EA9170074D286000BF002030BDD3F810
:104210009C0040F00200C3F89C000120F6E700007B
:10422000FFFFCF3F14A800402DE9F04104460E46A1
:104230001746706800B900E000BF94F898000228A3
:1042400032D12068D0F8C00000F07C5040B9D4F8DA
:104250009C0040F02000C4F89C000120BDE8F081E3
:104260002068D0F8C40000F4001038B1D4F89C00E5
:1042700040F40070C4F89C000120EFE72068D0F8FB
:10428000C400C0F304452B463A4631462046FDF7AC
:10429000C1F80120A8402168C1F8D0000120A84041
:1042A000C4F894000020D9E7D4F89C0040F008003E
:1042B000C4F89C000120D1E77047F0B5024692F89F
:1042C0009860012E01D0022E43D1C868072800D182
:1042D00000BF086818BBC868072800D000BFC868BE
:1042E00007280BD1088A4FF0605747EA0040CF6992
:1042F00040EA07208F6940EA07040AE0087A80074D
:104300000F7B40EAC7600F8A40EA07404F6940EAE6
:104310000704D76E486807EB80031C6017E0C86885
:10432000072800D000BF0F7B086940EA4774C868BF
:10433000072801D18D6903E00F7A486940EA877543
:10434000176F486807EBC0031C601B1D1D60002031
:10435000F0BDD2F89C0040F00200C2F89C000120A1
:10436000F6E770B50446049D94F8980001280AD138
:10437000080140EA820040EA430028432668C6F864
:104380008000002070BDD4F89C0040F00400C4F808
:104390009C000120F6E77047704700002DE9F043CC
:1043A00004460D469C46002394F89880B8F1020F0D
:1043B00074D1402D38D12068D0F8A00000F4FE0060
:1043C00040B9D4F89C0040F02000C4F89C000120C3
:1043D000BDE8F0832068D0F8A40000F07F0038B971
:1043E000D4F89C0040F48070C4F89C000120EFE7F2
:1043F0002068D0F8A400C0F3006040B12068D0F875
:10440000A0004FF00109B9EBD07F00D10123206853
:10441000D0F8A400C0F305200344606C5843D4F8DE
:10442000749009EB80014BE0412D38D12068D0F821
:10443000B00000F4FE0038B9D4F89C0040F0200031
:10444000C4F89C000120C3E72068D0F8B40000F055
:104450007F0038B9D4F89C0040F48070C4F89C0008
:104460000120B5E72068D0F8B400C0F3006040B187
:104470002068D0F8B0004FF00109B9EBD07F00D12F
:1044800001232068D0F8B400C0F305200344E06C99
:104490005843D4F8789009EB800111E06DE0206D6D
:1044A000A84207D8D4F89C0040F02000C4F89C0033
:1044B00001208DE7606D6843D4F87C9009EB8001A2
:1044C000086800F080405060506820B90868C0F368
:1044D0008A40106003E0086820F0604010600868BF
:1044E00000F000509060086800F000401061091D65
:1044F000088880B2D0610868C0F30340D0600868C3
:1045000000F480105061086800F4001090610868A1
:10451000C0F3066010620868C00F5062091D0F46A4
:10452000002603E0B85D0CF80600761CDFF85C900E
:10453000D06819F80000B042F4D8402D03D12068AB
:10454000C0F8A83017E0412D03D12068C0F8B8307A
:1045500011E0202D06D20120A840D4F80090C9F81F
:10456000980008E005F01F09012000FA09F0D4F8CE
:104570000090C9F89C0000202AE7D4F89C0040F085
:104580000800C4F89C00012022E70000B4D3000812
:10459000704700002DE9F04F8DB00446EF480068E9
:1045A0008707EE48001D006807EA80772068006DE5
:1045B00000F470482068406D00EA08082068006D2B
:1045C00000F00F092068406D00EA09092068006DBD
:1045D00000F0F00A2068406D00EA0A0A2068006DC9
:1045E00000F0715B2068406D00EA0B0B2068006DE5
:1045F00000F060700C902068406D0C9908400C90A1
:104600002068456D2068066DC5F3002070B1C6F3C3
:10461000002058B100BF4FF4807021680865002069
:10462000CE49086000BF2046FFF7B2FFC5F38020E7
:10463000C8B1C6F38020B0B12068D0F8DC000A9081
:104640002068D0F8E4000A9908400A9000BF4FF4AF
:104650008060216808650020C049086000BF2046CE
:104660000A9900F090FB67B100BFBD48384021684F
:104670000865B80FB949086000BF39462046FFF702
:104680001BFEB8F1000F0ED000BFB54808EA0000CD
:10469000216808654FEA9870B049086000BF41463C
:1046A000204600F072FBB9F1000F0ED000BFAC48FD
:1046B00009EA0000216808654FEA9970A749086077
:1046C00000BF4946204600F019FBBAF1000F0ED09A
:1046D00000BFA3480AEA0000216808654FEA9A7003
:1046E0009E49086000BF5146204600F02BFBC5F3F1
:1046F000C02070B1C6F3C02058B100BF4FF40060B5
:104700002168086500209549086000BF204600F038
:104710003DFBC5F34020C8B1C6F34020B0B12068CE
:10472000D0F8D8000B902068D0F8E0000B99084032
:104730000B9000BF4FF40070216808650020874986
:10474000086000BF20460B9900F01EFBC5F3C04077
:1047500070B1C6F3C04058B100BF4FF400202168CB
:10476000086500207D49086000BF204600F0C4FABB
:10477000C5F3004070B1C6F3004058B100BF4FF41C
:1047800080302168086500207449086000BF204619
:1047900000F0F8FAC5F3804070B1C6F3804058B11C
:1047A00000BF4FF480202168086500206B49086035
:1047B00000BF204600F0E5FAC5F3404088B1C6F3DB
:1047C000404070B100BF4FF4003021680865002000
:1047D0006249086000BFD4F89C0040F08000C4F833
:1047E0009C000C9870B100BF5D490C98084021688E
:1047F00008650C98800F5949086000BF20460C9945
:10480000FFF7CAFDBBF1000F10D000BF54480BEA00
:104810000000216808654FEA9B705049086000BF9E
:10482000D4F89C0040EA0B00C4F89C004D49206875
:1048300088427DD16068806800F00300002877D04E
:104840006068006A00F00F0009906068406A09998A
:10485000084009906068006A00F0300008906068C5
:10486000406A0899084008906068006A00F4C070C7
:1048700007906068406A0799084007906068006A7E
:1048800000F4FC4006906068406A06990840069073
:104890006068006A00F4F02005906068406A05993D
:1048A000084005906068406A02906068006A019064
:1048B000099830B10998616808622046099900F0AA
:1048C0005DFA089830B10898616808622046089936
:1048D00000F056FA0298C0F38010A0B10198C0F31E
:1048E000801080B16068C06B000C04906068C06B81
:1048F00000F03F0003904020616808622046DDE937
:10490000032100F03CFA079830B10798616808620B
:104910002046079900F031FA069840B10698616880
:104920000862D4F89C0006990843C4F89C0000E093
:104930000AE0059840B1059861680862D4F89C00C7
:1049400005990843C4F89C00D4F89C0010B1204697
:10495000FFF721FD0DB0BDE8F08F000010A800406A
:10496000FFFFCF3F00A0004070B594B004464C223A
:10497000B34901A8FBF797FD14B9012014B070BD2D
:10498000B0492068884203D1206800F580706060DB
:10499000A068B0F5407F00D100BF206C00B100BF1F
:1049A000A06C00B100BF206D00B100BF206E00B14F
:1049B00000BFD4E91710084400B100BF94F8980074
:1049C00028B9002084F89900204600F03DF92068BD
:1049D000806920F010002168886100F025FB054601
:1049E0000EE000F021FB401B0A2809D998346068CA
:1049F00040F001006060032004F898090120BDE741
:104A00002068806900F008000828EAD020688069E2
:104A100040F001002168886100F006FB05460EE0C9
:104A200000F002FB401B0A2809D99834606840F066
:104A300001006060032004F8980901209EE72068C7
:104A4000806900F001000028EAD02068806940F009
:104A5000020021688861207C012806D120688069D5
:104A600020F040002168886105E02068806940F0FE
:104A7000400021688861607C012806D12068806937
:104A800040F480402168886105E02068806920F456
:104A9000804021688861A07C012806D12068806957
:104AA00020F480502168886105E02068806940F426
:104AB0008050216888612068806920F44070A16876
:104AC0000843216888612068806920F0A40021687B
:104AD00088612068006920F0100021680861E068A2
:104AE000012806D12068806940F0040021688861AF
:104AF00020E0E068F0B1E068022815D02068806905
:104B000040F08000216888612068006940F0100052
:104B100021680861E06803280CD12068806940F0B2
:104B200020002168886105E02068806940F020004D
:104B300021688861207E401E4106E069401E41EAEE
:104B40000020216A491E0843A18A491E40EA01400B
:104B50002168C861A068B0F5407F0FD1A06A401EEF
:104B6000E16A491E40EA0121206B401E41EA001122
:104B7000A08C401E41EA00402168C860206E38B118
:104B80002068D0F8C000616E08432168C1F8C000F9
:104B9000D4E91710084460B12068D0F8C80020F0AC
:104BA000070001AAA16E52F8211008432168C1F83C
:104BB000C800206C60B12068D0F8BC0020F007006D
:104BC00001AA616C52F8211008432168C1F8BC00A9
:104BD000A06C68B12068D0F8BC0020F0700101AA78
:104BE000E06C52F8200041EA00102168C1F8BC00D6
:104BF000206D68B12068D0F8BC0020F4E06101AA03
:104C0000606D52F8200041EA00202168C1F8BC0024
:104C10000C492068884205D16068806820F0030054
:104C200061688860002044F8940FA0600120207122
:104C3000943C2046FCF7DEFA064630469EE600002D
:104C4000C4D3000800A0004010B5B8B00446142139
:104C500032A8FBF75AFCC02102A8FBF756FC2349F7
:104C6000206888423FD14FF400410020CDE9021076
:104C700048031E9002A801F0DDFF08B1FCF7AFFA6F
:104C800000BF1B48006840F480701949086008465E
:104C9000006800F48070019000BF00BF00BF14489E
:104CA0000C38006840F0080011490C3908600846CB
:104CB000006800F00800019000BF00BF03203290A0
:104CC000022033900020349035900920369032A98C
:104CD000084800F09FF800220221132000F076FF20
:104CE000132000F05FFF38B010BD000000A00040AE
:104CF000EC440258000C02587047000070B504469E
:104D00000D460C4B0C4A40212046FFF747FB08B1EB
:104D1000FCF765FA08480068B0F5807F08D10749BC
:104D2000074808F01FFA06488069401C044988615A
:104D300070BD0000280000246008002488080024BA
:104D4000640C00247047014691F8980001280CD1AA
:104D5000022081F898000868806920F001000A6844
:104D600090610020C1F89C007047D1F89C0040F091
:104D70000400C1F89C000120F6E7704770477047B7
:104D80007047704770477047704770477047000022
:104D900010B50446012C02D0022C24D111E000F001
:104DA00043F912490968401AC82809D900F03CF9AA
:104DB0000E4908600E48408C401C00B20C494884E3
:104DC00012E000F031F90B490968401AC82809D9E6
:104DD00000F02AF9074908600548408C401E00B2DF
:104DE0000349488400E000BF00BF10BD000000245C
:104DF000640C00240400002410B504460448006834
:104E0000204020B1024804602046FFF7C1FF10BDDA
:104E100088000058F8B502460B4600216F4DD7E0D8
:104E200001278F401E6806EA0704002C72D01E7905
:104E300006F00306012E04D01E7906F00306022EAA
:104E400013D190684F000326BE40B0434F00DE6888
:104E5000BE4030439060506801268E40B0431E79BA
:104E6000C6F300168E40304350601E7906F00306EC
:104E7000032E09D0D0684F000326BE40B0434F0038
:104E80009E68BE403043D0601E7906F00306022EB5
:104E900013D1CF0802F1200656F827004E07F70E6F
:104EA0000F26BE40B0434F07FF0E1E69BE40304381
:104EB000CF0802F1200646F8270010684F000326AD
:104EC000BE40B0431E7906F003064F00BE4030439B
:104ED00010605E6806F44036002E78D000BF404E69
:104EE000366846F002063E4F3E603E46366806F0A3
:104EF0000206009600BF00BF3A4E8F0856F8270002
:104F00008E07370F0F26BE40B043374EB24202D154
:104F100000262EE05BE0354EB24201D1012628E0AA
:104F2000334EB24201D1022623E0324EB24201D1C9
:104F300003261EE0304EB24201D1042619E02F4E66
:104F4000B24201D1052614E02D4EB24201D106260F
:104F50000FE02C4EB24201D107260AE02A4EB2429F
:104F600001D1082605E0294EB24201D1092600E010
:104F70000A268F073F0FBE4030431A4E8F0846F86F
:104F800027004FF0B0463068A0435E6806F48016F4
:104F900006B120434FF0B04630607068A0435E68B1
:104FA00006F4001606B120434FF0B0467060686802
:104FB000A0435E6806F4003606B1204368602868A6
:104FC000A0435E6806F4803606B120432860491C81
:104FD0001E68CE40002E7FF423AFF8BD800000583D
:104FE000F444025808040058000002580004025813
:104FF00000080258000C0258001002580014025811
:1050000000180258001C02580020025800240258C0
:105010000AB1816101E00B048361704701480068B7
:10502000000C70470010005C0148006870470000E9
:105030001000002430B503460C4693F8C100022846
:1050400000D130BD00BF93F8C000012801D102207B
:10505000F7E7012083F8C00000BF022083F8C100F9
:10506000108800F4E0519088C0F3080001431089D3
:1050700000F400700143108A00F4804001439089DD
:1050800000F400400143908A134D05EA00400143BB
:10509000906900F000700143106A00F08040014305
:1050A000D06900F0004001431868803000EBC41064
:1050B000806B0A4D284008431D68803505EBC415F8
:1050C000A863012083F8C10000BF002083F8C0005E
:1050D00000BF00BFB5E700000000FF010020003C5A
:1050E000F8B504460CB90120F8BD0220C43404F818
:1050F000030C002020606060A060E06020616061BF
:10510000C43C207A00F0010008B335492068884289
:105110000DD100BF3348006840F0005031490860AD
:105120000846006800F00050009000BF00BF2068F3
:10513000066826F44046208A00F44040064326F4E0
:105140004056A08A00F4405006432068066020467E
:1051500000F04AF8207A00F0020048B120680668A2
:1051600026F44076A08900F440700643206806606B
:10517000012084F8C10000BF002084F8C00000BFF7
:10518000002529E00021C5EBC50204F1180040F814
:105190002210C5EBC50200EB82004160C5EBC502E1
:1051A00004F1180000EB82008160C5EBC50204F138
:1051B000180000EB8200C160C5EBC50204F11800C5
:1051C00000EB82000161C5EBC50204F1180000EBA1
:1051D00082008161681CC5B2052DD3D9002083E708
:1051E00000740140F044025810B5B2B00446C0212A
:1051F00002A8FBF78AF910492068884219D14FF0BC
:1052000080510020CDE90210309002A801F012FD7B
:1052100008B1FBF7E4FF00BF0848006840F0005009
:10522000064908600846006800F00050019000BF81
:1052300000BF32B010BD000000740140F0440258BD
:1052400010B586B00446142101A8FBF75EF91F498A
:105250002068884238D100BF1D48006840F0040033
:105260001B4908600846006800F00400009000BF79
:1052700000BF00BF0846006840F001000860084613
:10528000006800F00100009000BF00BF4FF4E07024
:10529000019002200290002003900320049001203E
:1052A000059001A90B48FFF7B5FD4FF48070019000
:1052B0000220029000200390032004900220059019
:1052C00001A90548FFF7A6FD06B010BD0074014016
:1052D000E0440258000802580000025870B5044625
:1052E0000D46164694F8C100022800D170BD022078
:1052F00084F8C100052D04D13146204604F062FB3C
:1053000004E032462946204604F017FC012084F8C8
:10531000C1000020EAE730B5044694F8C100022835
:1053200000D130BD00BF94F8C000012801D1022097
:10533000F7E7012084F8C00000BF022084F8C10014
:10534000052928D1012A06D0022A08D0042A0AD029
:10535000082A10D10BE018682568E86114E0186885
:105360002568686210E018682568A8620CE0186873
:105370002568E86208E0072084F8C10000BF00202B
:1053800084F8C00000BF00BF00BF94F8C100072828
:105390007DD10120C5E7012A06D0022A0BD0042ABC
:1053A0004CD0082A74D150E01D682068803000EB92
:1053B000C110C5619AE01D682068803000EBC11003
:1053C0004562586868B32068803000EBC1100068FF
:1053D00020F440552068803000EBC1100560206843
:1053E000803000EBC11000685D6828432568803577
:1053F00005EBC11528605868B0F5005F06D19D68BF
:105400002068803000EBC110C56116E05868B0F527
:10541000405F12D19D682068803000EBC11085622A
:105420000BE02068803000EBC110006820F4405091
:105430002568803505EBC115286057E01D68206898
:10544000803000EBC110856250E01D68206880301C
:1054500000EBC110C562586888B32068803000EB4B
:10546000C110006820F440452068803000EBC11076
:1054700005602068803000EBC11000685D6840EA7C
:1054800085052068803000EBC110056001E034E044
:1054900023E05868B0F5005F06D19D682068803031
:1054A00000EBC110C56117E05868B0F5405F13D13B
:1054B0009D682068803000EBC11085620CE0FFE73A
:1054C0002068803000EBC110006820F4404025685F
:1054D000803505EBC115286008E0072084F8C1007D
:1054E00000BF002084F8C00000BF00BF00BF94F8D8
:1054F000C100072801D1012013E7012084F8C10071
:1055000000BF002084F8C00000BF00BF09E70246CA
:1055100000BF92F8C000012801D10220704701208D
:1055200082F8C00000BF022082F8C1001068006845
:10553000084313681860012082F8C10000BF0020F2
:1055400082F8C00000BF00BFE8E72DE9F041044643
:105550000D4616461F4694F8C100022801D1BDE849
:10556000F08100BF94F8C000012801D10220F6E7C5
:10557000012084F8C00000BF022084F8C1003B462F
:1055800032462946204604F05FFA012084F8C10023
:1055900000BF002084F8C00000BF00BFDFE7024664
:1055A00000BF92F8C000012801D1022070470120FD
:1055B00082F8C00000BF022082F8C1001068D0F855
:1055C000940308431368C3F89403012082F8C100D0
:1055D00000BF002082F8C00000BF00BFE6E702461F
:1055E00000BF92F8C000012801D1022070470120BD
:1055F00082F8C00000BF022082F8C1001068D0F815
:10560000980308431368C3F89803012082F8C10087
:1056100000BF002082F8C00000BF00BFE6E770B501
:1056200004460D46164694F8C100022800D170BD0C
:1056300000BF94F8C000012801D10220F7E7012043
:1056400084F8C00000BF022084F8C100052D04D1F9
:105650003146204604F0CAF904E032462946204685
:1056600004F08BFAC5EBC50204F1180000EB8200D0
:1056700031688160C5EBC50204F1180000EB8200BF
:105680007168C160C5EBC50204F1180000EB82002F
:10569000B1680161C5EBC50204F1180000EB82009E
:1056A000F1684161C5EBC50204F1180000EB82000E
:1056B000316981612946204604F044F9012084F8CB
:1056C000C10000BF002084F8C00000BF00BFAEE7EB
:1056D000024692F8410020282DD100BF92F84000E8
:1056E000012801D102207047012082F8400000BF4C
:1056F000242082F841001068006820F0010013683F
:1057000018601068006820F48050136818601068F2
:1057100000680843136818601068006840F00100D2
:1057200013681860202082F8410000BF002082F832
:10573000400000BFD7E70220D5E710B502460B4670
:1057400092F8410020282AD100BF92F84000012899
:1057500001D1022010BD012082F8400000BF2420AA
:1057600082F841001068006820F001001468206091
:105770001068016821F4706141EA0321106801603A
:105780001068006840F0010014682060202082F852
:10579000410000BF002082F8400000BFDAE702208D
:1057A000D8E7000010B504460CB9012010BD94F8EC
:1057B000410028B9002084F84000204600F02AF972
:1057C000242084F841002068006820F0010021684E
:1057D0000860606820F07060216808612068806857
:1057E00020F4004021688860E068012805D1A068A5
:1057F00040F400402168886004E0A06840F4044060
:1058000021688860E068022806D12068406840F47A
:1058100000602168486005E02068406820F400606E
:10582000216848602068406813490843216848603F
:105830002068C06820F400402168C860D4E90401F1
:105840000843A16940EA01202168C860D4E9070142
:105850000843216808602068006840F00100216862
:10586000086000206064202084F84100002020634C
:1058700084F8420000BF99E7008000022DE9FC5F38
:105880000446894692469B46DDE90C780E9E94F8C4
:10589000410020287DD117B1B8F1000F05D14FF498
:1058A000007060640120BDE8FC9F00BF94F84000D8
:1058B000012801D10220F6E7012084F8400000BF52
:1058C000FFF7B2FB054619230122D10320460095BC
:1058D00004F04CFB08B10120E5E7212084F84100E9
:1058E000402084F84200002060646762A4F82A80A7
:1058F00060635B46524649462046CDE9006504F0A8
:10590000DBFA30B100BF002084F8400000BF012066
:10591000C9E7608DFF280CD9FF202085002000906A
:1059200094F828204FF080734946204604F002FB8B
:105930000BE0608D20850020009094F828204FF027
:1059400000734946204604F0F5FA00BF2A46314666
:10595000204604F07CFB08B10120A4E7606A0078CF
:1059600021688862606A401C6062608D401E6085AC
:10597000208D401E2085608D40B3208D30BB334686
:10598000002280212046009504F0F0FA10B1012099
:1059900089E73AE0608DFF280CD9FF2020850020A0
:1059A000009094F828204FF080734946204604F078
:1059B000C1FA0BE0608D20850020009094F828202B
:1059C0004FF000734946204604F0B4FA608D002879
:1059D000BCD12A463146204604F009FB08B101201B
:1059E00061E720202168C8612068406808490840B4
:1059F00021684860202084F84100002084F842009B
:105A000000BF84F8400000BF4DE702204BE70000D4
:105A100000E800FE10B5B8B00446142132A8FAF729
:105A200074FDC02102A8FAF770FD1E492068884263
:105A300036D108210020CDE90210239002A801F000
:105A4000F9F808B1FBF7CBFB00BF1748006840F03E
:105A50000200154908600846006800F00200019045
:105A600000BF00BFC020329012203390012034903C
:105A7000022035900420369032A90C48FFF7CAF96D
:105A800000BF09480830006840F40010064908319A
:105A900008600846006800F40010019000BF00BFD5
:105AA00038B010BD00540040E044025800040258D1
:105AB00003480068034909780844014908607047B1
:105AC000100000241800002410B5032000F0BCF8DA
:105AD00002F03EF910490968C1F303210F4A515CF5
